:020000040800F2
:1040000000000120DD410008E3410008E74100080D
:10401000594200085D420008A54200080000000067
:10402000000000000000000000000000ED42000859
:10403000F142000800000000F5420008F9420008C3
:104040000943000809430008094300080943000820
:104050000943000809430008094300080943000810
:104060000943000809430008094300080943000800
:1040700009430008094300080943000809430008F0
:104080000943000809430008094300080000000034
:1040900000000000000000000000000009430008CC
:1040A00009430008094300080943000809430008C0
:1040B00009430008094300080943000809430008B0
:1040C00009430008094300080943000809430008A0
:1040D00009430008094300080943000800000000E4
:1040E00009430008094300080943000800000000D4
:1040F000000000000000000000000000094300086C
:1041000000000000094300080943000809430008B3
:10411000000000000000000000000000000000009F
:10412000094300080943000809430008094300083F
:10413000094300080000000000000000000000002B
:10414000000000000000000000000000094300081B
:10415000094300080943000809430008094300080F
:1041600009430008094300080000000000000000A7
:10417000000000000000000000000000000000003F
:1041800000000000094300080000000000000000DB
:104190000943000800B583B00D4B4FF000621A6070
:1041A000694601A800F0F0F80099019800F0CAF9FA
:1041B0000546084C084BE41AA41004E0013C064BE9
:1041C00053F824309847002CF8DC284600F0B8F863
:1041D00008ED00E0344300083443000808B5FFF759
:1041E000D9FF00BEFEE71EF0040F0CBFEFF30880FE
:1041F000EFF309807146414A10472DE9F04182B042
:1042000004468846124B5E6B9F6B9D6A1B6B13F0D6
:10421000020F03D00E4BDB6A002B0CDB0D4800F0C5
:10422000BBF8CDF800803B4632462946204600F0D8
:10423000FFF800BEFEE74BF6AB6100F073F9002813
:10424000ECD0034B4FF00042DA6202B0BDE8F081DF
:1042500000ED00E0A44F000800BEFEE71EF0040FD2
:104260000CBFEFF30880EFF309807146244A104732
:104270002DE9F04182B004468846084B5E6B9F6B87
:104280009D6A074800F088F8CDF800803B4632462A
:104290002946204600F0CCF800BEFEE700ED00E025
:1042A000B44F00081EF0040F0CBFEFF30880EFF3CB
:1042B00009807146134A10472DE9F04182B0044647
:1042C0008846084B5E6B9F6B9D6A074800F064F858
:1042D000CDF800803B4632462946204600F0A8F83B
:1042E00000BEFEE700ED00E0C04F000800BEFEE7A4
:1042F00000BEFEE700BEFEE770470000FB4100087D
:0C43000071420008B942000800BEFEE750
:10430C0004500008000000206C000020045000083D
:10431C0000000010000000106C00002000010020C4
:08432C00000000100000001069
:10434000FEE7000008B503460C4A12685AB10B4A52
:104350001068033323F003030344094A934206D849
:10436000064A136008BD054A06491160EFE700F0F0
:1043700015F90C2303604FF0FF30F3E76C000020C9
:1043800000FC00200001002001230360014B0B60B2
:10439000704700BF000000200FB400B583B004AB2D
:1043A00053F8042B01938021064800F029F90028D6
:1043B00003DD0146034800F037F803B05DF804EB75
:1043C00004B07047740000202DE9F04385B0044626
:1043D0000F4643560BB10E461EE0042528462146E3
:1043E000ABBE0446384605B0BDE8F08314F9011BA6
:1043F00004AA1A4402F8101C0133AB42F6D304AAF3
:104400001344002203F8102C4FF00408E9464046FC
:104410004946ABBE8046761B002EE3D03546102EB3
:1044200028BF10250023E8E708B5FFF7CDFF08BD3A
:10443000F8B504460D4617461E462748FFF7ACFF61
:1044400021682648FFF7A8FF61682548FFF7A4FF09
:10445000A1682448FFF7A0FFE1682348FFF79CFF0D
:1044600021692248FFF798FF61692148FFF794FF0F
:10447000A1692048FFF790FFE1691F48FFF78CFF13
:104480001E48FFF789FF29461D48FFF785FF1D4C91
:10449000E16A1D48FFF780FF216B1C48FFF77CFF96
:1044A000E16B1B48FFF778FF15F0800F0AD115F478
:1044B000004F0CD11748FFF76FFF06991648FFF71A
:1044C0006BFFF8BD39461548FFF766FFEFE7314649
:1044D0001348FFF761FFEDE7884E0008984E00088B
:1044E000A84E0008B84E0008C84E0008D84E000874
:1044F000E84E0008F84E0008084F0008184F000862
:10450000244F000800ED00E0344F0008444F00083D
:10451000544F0008844F00088C4F0008644F000877
:10452000744F000883691A888A4201D000207047BE
:104530000268033A012A03D80233836101207047DD
:10454000002070470F4B104A1A60104A136843F05E
:10455000010313600E4A136843F480631360002361
:1045600000E001330B4A9342FBD903E00133094ACF
:104570009342FBD9084A136883F020031360002399
:10458000F5E700BF08ED00E00040000830380240C9
:10459000000002403F420F0014000240014B186827
:1045A000704700BF0800002030B5141E05469BB0C0
:1045B000184605DA8B232B604FF0FF301BB030BD5F
:1045C0004FF40273ADF80C3014BF04F1FF332346EF
:1045D000029305934FF6FF7300910491ADF80E30EE
:1045E00002461E9B6946284600F072F8431CBCBF79
:1045F0008B232B60002CE1D0009B00221A70DDE79A
:1046000007B5009313460A46014603480068FFF7C2
:10461000CBFF03B05DF804FB080000202DE9F04754
:104620008E689E4282460C469046994637D88A89C3
:1046300012F4906F31D0256809696F1A65690223F9
:1046400005EB450595FBF3F509F101033B449D425C
:1046500038BF1D46530530D5294600F07BFB064682
:1046600050B90C23CAF80030A38943F04003A3815A
:104670004FF0FF30BDE8F0873A46216900F0F8FAC4
:10468000A38923F4906343F08003A38126616561CD
:104690003E44ED1B2660A5604E464E4500D94E4671
:1046A00032464146206800F0EEFAA3689B1BA360E7
:1046B00023681E4426600020DCE72A4600F0A4FBA5
:1046C00006460028E2D12169504600F0F5FAC8E715
:1046D0002DE9F04F9DB0804603938B891D060C4653
:1046E00016460FD50B696BB9402100F033FB2060F3
:1046F000206128B90C23C8F800304FF0FF30C7E024
:10470000402363610023099320238DF8293030234F
:104710008DF82A304FF0010B37463D4615F8013B26
:104720000BB1252B3ED1B7EB060A0BD053463246D0
:1047300021464046FFF772FF013000F0A480099B3C
:10474000534409933B78002B00F09D8000234FF0E9
:10475000FF32CDE90523049307938DF853301A9364
:104760002F46052217F8011B4F4800F031FA049B31
:10477000D0B9D90644BF20228DF853201A0744BF70
:104780002B228DF853202A782A2A15D0079A2F46F3
:1047900000200A25394611F8013B303B092B4DD941
:1047A000B8B10FE02F46B8E73F4A801A0BFA00F085
:1047B000184304903D46D3E7039A111D12680391F4
:1047C000002A01DB079204E0524243F00203079201
:1047D00004933B782E2B0CD17B782A2B33D1039B6F
:1047E0001A1D1B680392002BB8BF4FF0FF3302372E
:1047F00005932E4D39780322284600F0E9F938B1A7
:104800004023401B03FA00F0049B03430137049349
:10481000397827488DF8281006227E1C00F0D8F938
:10482000002838D0234B13BB039B073323F0070327
:1048300008330393099B4B4409936DE705FB023250
:1048400001200F46A6E700230137059319460A25E4
:10485000384610F8012B303A092A03D9002BC8D06A
:104860000591C6E705FB012101230746F0E703ABED
:1048700000932246104B04A94046AFF30080B0F1EC
:10488000FF3F8146D6D1A3895B063FF536AF099835
:104890001DB0BDE8F08F03AB00932246064B04A980
:1048A000404600F081F8EAE7D04F0008D64F0008F4
:1048B000DA4F0008000000001D4600082DE9F0470F
:1048C00091461F468A680B69DDF820809342B8BF85
:1048D0001346C9F8003091F8432006460C4612B141
:1048E0000133C9F800302368990642BFD9F8003077
:1048F0000233C9F80030256815F0060507D104F128
:10490000190AE368D9F800209B1AAB4228DC94F816
:1049100043302268003318BF012392062DD404F1DE
:10492000430239463046C047013020D02368E5684D
:10493000D9F8002003F00603042B08BFAD1AA368C2
:1049400022690CBF25EAE57500259342C4BF9B1A76
:10495000ED184FF000091A344D451AD1002008E037
:104960000123524639463046C047013003D14FF04B
:10497000FF30BDE8F0870135C3E7E1185A1C30204D
:1049800081F84300224494F8451082F84310023322
:10499000C5E70123224639463046C0470130E6D0FC
:1049A00009F10109D8E700002DE9F04301F1430CBA
:1049B0000C46097E85B06E291746064698460C9A25
:1049C00000F0B38022D8632936D00AD8002900F03D
:1049D000B980582900F0838004F1420584F8421020
:1049E00032E0642901D06929F6D1206813680506F0
:1049F00003F104012AD51B681160002B03DA2D2274
:104A00005B4284F843206F480A2239E0732900F0A2
:104A10009D8008D86F2920D07029DDD1236843F00C
:104A20002003236003E0752917D07829D4D1782397
:104A300084F84530644855E01368191D1B681160FF
:104A400004F1420584F8423001238CE01B681160B8
:104A500010F0400F18BF1BB2CFE713682568181D70
:104A60001060280601D51B6802E06806FBD51B888C
:104A700054486F2914BF0A220822002184F84310E9
:104A80006568A560002DC0F29580216821F00401C1
:104A90002160002B3DD1002D40F08E806546082A14
:104AA0000BD12368DB0708D5236962689A42DEBF11
:104AB000302305F8013C05F1FF35ACEB050323611C
:104AC000CDF800803B4603AA21463046FFF7F6FEAC
:104AD00001304DD14FF0FF3005B0BDE8F0833948CB
:104AE00084F84510136821681D1D1B6815600A06AF
:104AF0000BD5CA0744BF41F0200121601BB92268D1
:104B000022F0200222601022B7E74D0648BF9BB278
:104B1000EFE76546B3FBF2F102FB1133C35C05F826
:104B2000013D0B460029F5D1B9E713682568616995
:104B3000181D106028061B6801D5196002E06A067E
:104B4000FBD51980002323616546B9E71368191D59
:104B500011601D6862680021284600F039F808B12C
:104B6000401B606063682361002384F84330A7E73B
:104B700023692A4639463046C0470130AAD0236807
:104B80009B0713D4E068039B9842B8BF1846A3E77D
:104B900001234A4639463046C04701309AD0013594
:104BA000E368039A9B1AAB42F2DCEBE7002504F1C1
:104BB0001909F5E7002BACD1037884F8423004F1F1
:104BC00042056CE7E14F0008F24F000800000000CA
:104BD00001F0FF01102A2BDB10F0070F08D010F8AE
:104BE000013B013A8B422DD010F0070F42B3F6D1B2
:104BF000F0B441EA012141EA014122F007047FF0CB
:104C000000070023F0E80256083C85EA010586EA21
:104C1000010685FA47F5A3FA87F586FA47F6A5FA5D
:104C200087F68EB9EED1F0BC01F0FF0102F0070269
:104C300032B110F8013B013A83EA010313B1F8D114
:104C40000020704701387047002D06BF35460338F5
:104C5000073815F0010F07D1013015F4807F02BF2E
:104C6000013015F4C03F0130F0BC0138704700BF7F
:104C700010B5431E0A44914200D110BD11F8014BFA
:104C800003F8014FF7E7884210B501EB020307D89C
:104C9000421E99420AD011F8014B02F8014FF8E781
:104CA0008342F5D98118D21AD34200D110BD13F82E
:104CB000014D01F8014DF7E738B50546002945D00B
:104CC00051F8043C0C1F002BB8BFE41800F0D2F8D8
:104CD0001F4A1368104633B9636014602846BDE864
:104CE000384000F0C8B8A3420CD92168621893423A
:104CF00004BF1A685B68636004BF521822600460D6
:104D0000ECE713465A680AB1A242FAD91968581852
:104D1000A0420BD120680144581882421960DDD1AD
:104D2000106852685A6001441960D7E702D90C2311
:104D30002B60D3E7206821188A4204BF11685268AB
:104D4000626004BF091821605C60C7E738BD00BF1E
:104D5000F400002070B5CD1C25F0030508350C2D9E
:104D600038BF0C25002D064601DBA94203D90C23D0
:104D70003360002070BD00F07DF8214A14682146A0
:104D800091B9204C23681BB9304600F063F82060CD
:104D90002946304600F05EF8431C24D10C233360D2
:104DA000304600F068F8E4E70B685B1B18D40B2B67
:104DB0000FD90B60CD50CC18304600F05CF804F1F0
:104DC0000B00231D20F00700C31AD3D05A42E25033
:104DD000D0E78C424B6816BF636013600C46EBE76C
:104DE0000C464968CCE7C41C24F00304A04205D05B
:104DF000211A304600F02EF80130CFD02560DBE7D5
:104E0000F4000020F8000020F8B5074614460E46CE
:104E100021B91146BDE8F840FFF79CBF22B9FFF762
:104E20004BFF25462846F8BD00F026F8A0420FD2D9
:104E300021463846FFF78EFF05460028F2D031465E
:104E40002246FFF715FF31463846FFF735FFE9E701
:104E50003546E7E738B5064C00230546084623608B
:104E6000FFF770FA431C02D1236803B12B6038BDF1
:104E7000FC0000207047704751F8043C181F002BBD
:104E8000BCBF0B58C0187047537461636B206672C7
:104E9000616D653A0A000000205230203D20202537
:104EA0003038580A00000000205231203D202025D3
:104EB0003038580A00000000205232203D202025C2
:104EC0003038580A00000000205233203D202025B1
:104ED0003038580A0000000020523132203D202591
:104EE0003038580A00000000204C52203D20202578
:104EF0003038580A00000000205043203D20202573
:104F00003038580A0000000020505352203D202520
:104F10003038580A000000004653522F4641523A9A
:104F20000A0000002043465352203D2020253038FF
:104F3000580A00002048465352203D202025303892
:104F4000580A00002044465352203D202025303886
:104F5000580A00002041465352203D202025303879
:104F6000580A0000204D4D464152203D2025303842
:104F7000580A00002042464152203D20202530386A
:104F8000580A00004D6973630A000000204C522F3C
:104F90004558435F52455455524E3D2025303858B0
:104FA0000A0000005B486172644661756C745D0ABA
:104FB000000000005B4275734661756C745D0A0009
:104FC0005B55736167654661756C745D0A0000002E
:104FD000232D302B2000686C4C00656667454647E2
:104FE0000030313233343536373839414243444565
:104FF00046003031323334353637383961626364D4
:03500000656600E2
:1050040070000020000000000C00002000000000E0
:10501400000000000000000000000000000000008C
:10502400000000000000000000000000000000007C
:10503400000000000000000000000000000000006C
:10504400000000000000000000000000000000005C
:10505400000000000000000000000000000000004C
:0C50640000000000000000000000000040
:040000050800419519
:00000001FF